{
  "_format": "hh-sol-artifact-1",
  "contractName": "SimpleStorage",
  "sourceName": "contracts/simple-storage.sol",
  "abi": [
    {
      "inputs": [],
      "stateMutability": "nonpayable",
      "type": "constructor"
    },
    {
      "anonymous": false,
      "inputs": [
        {
          "indexed": true,
          "internalType": "address",
          "name": "oldOwner",
          "type": "address"
        },
        {
          "indexed": true,
          "internalType": "address",
          "name": "newOwner",
          "type": "address"
        }
      ],
      "name": "OwnerSet",
      "type": "event"
    },
    {
      "anonymous": false,
      "inputs": [
        {
          "indexed": false,
          "internalType": "uint256",
          "name": "newValue",
          "type": "uint256"
        }
      ],
      "name": "ValueUpdated",
      "type": "event"
    },
    {
      "inputs": [],
      "name": "getValue",
      "outputs": [
        {
          "internalType": "uint256",
          "name": "",
          "type": "uint256"
        }
      ],
      "stateMutability": "view",
      "type": "function"
    },
    {
      "inputs": [],
      "name": "message",
      "outputs": [
        {
          "internalType": "string",
          "name": "",
          "type": "string"
        }
      ],
      "stateMutability": "view",
      "type": "function"
    },
    {
      "inputs": [],
      "name": "owner",
      "outputs": [
        {
          "internalType": "address",
          "name": "",
          "type": "address"
        }
      ],
      "stateMutability": "view",
      "type": "function"
    },
    {
      "inputs": [
        {
          "internalType": "string",
          "name": "_message",
          "type": "string"
        }
      ],
      "name": "setMessage",
      "outputs": [],
      "stateMutability": "nonpayable",
      "type": "function"
    },
    {
      "inputs": [
        {
          "internalType": "uint256",
          "name": "_value",
          "type": "uint256"
        }
      ],
      "name": "setValue",
      "outputs": [],
      "stateMutability": "nonpayable",
      "type": "function"
    }
  ],
  "bytecode": "0x6080604052348015600e575f5ffd5b50600180546001600160a01b031916339081179091556040515f907f342827c97908e5e2f71151c08502a66d44b6f758e3ac2f1de95f02eb95f0a735908290a361051e8061005b5f395ff3fe608060405234801561000f575f5ffd5b5060043610610064575f3560e01c8063552410771161004d57806355241077146100925780638da5cb5b146100a5578063e21f37ce146100ea575f5ffd5b80632096525514610068578063368b87721461007d575b5f5ffd5b5f546040519081526020015b60405180910390f35b61009061008b366004610294565b6100ff565b005b6100906100a0366004610347565b610167565b6001546100c59073ffffffffffffffffffffffffffffffffffffffff1681565b60405173ffffffffffffffffffffffffffffffffffffffff9091168152602001610074565b6100f26101f4565b604051610074919061035e565b60015473ffffffffffffffffffffffffffffffffffffffff1633146101575760405162461bcd60e51b81526020600482015260096024820152682737ba1037bbb732b960b91b60448201526064015b60405180910390fd5b6002610163828261042d565b5050565b60015473ffffffffffffffffffffffffffffffffffffffff1633146101ba5760405162461bcd60e51b81526020600482015260096024820152682737ba1037bbb732b960b91b604482015260640161014e565b5f8190556040518181527f4273d0736f60e0dedfe745e86718093d8ec8646ebd2a60cd60643eeced5658119060200160405180910390a150565b60028054610201906103a9565b80601f016020809104026020016040519081016040528092919081815260200182805461022d906103a9565b80156102785780601f1061024f57610100808354040283529160200191610278565b820191905f5260205f20905b81548152906001019060200180831161025b57829003601f168201915b505050505081565b634e487b7160e01b5f52604160045260245ffd5b5f602082840312156102a4575f5ffd5b813567ffffffffffffffff8111156102ba575f5ffd5b8201601f810184136102ca575f5ffd5b803567ffffffffffffffff8111156102e4576102e4610280565b604051601f8201601f19908116603f0116810167ffffffffffffffff8111828210171561031357610313610280565b60405281815282820160200186101561032a575f5ffd5b816020840160208301375f91810160200191909152949350505050565b5f60208284031215610357575f5ffd5b5035919050565b602081525f82518060208401525f5b8181101561038a576020818601810151604086840101520161036d565b505f604082850101526040601f19601f83011684010191505092915050565b600181811c908216806103bd57607f821691505b6020821081036103db57634e487b7160e01b5f52602260045260245ffd5b50919050565b601f82111561042857805f5260205f20601f840160051c810160208510156104065750805b601f840160051c820191505b81811015610425575f8155600101610412565b50505b505050565b815167ffffffffffffffff81111561044757610447610280565b61045b8161045584546103a9565b846103e1565b6020601f82116001811461048d575f83156104765750848201515b5f19600385901b1c1916600184901b178455610425565b5f84815260208120601f198516915b828110156104bc578785015182556020948501946001909201910161049c565b50848210156104d957868401515f19600387901b60f8161c191681555b50505050600190811b0190555056fea2646970667358221220962d8cfb735eeabfd8aca2f43959f59b0758da389d9e66a51175f1f03056e71464736f6c634300081c0033",
  "linkReferences": {},
  "deployedLinkReferences": {}
}